{
  "_format": "hh-sol-artifact-1",
  "contractName": "Presale",
  "sourceName": "contracts/Presale.sol",
  "abi": [
    {
      "inputs": [
        {
          "internalType": "address",
          "name": "_priceFeedAddress",
          "type": "address"
        },
        {
          "internalType": "uint256",
          "name": "_mbdPrice",
          "type": "uint256"
        }
      ],
      "stateMutability": "nonpayable",
      "type": "constructor"
    },
    {
      "anonymous": false,
      "inputs": [
        {
          "indexed": false,
          "internalType": "address",
          "name": "beneficiary",
          "type": "address"
        },
        {
          "indexed": false,
          "internalType": "uint256",
          "name": "amount",
          "type": "uint256"
        }
      ],
      "name": "AddBeneficiary",
      "type": "event"
    },
    {
      "anonymous": false,
      "inputs": [
        {
          "indexed": false,
          "internalType": "uint256",
          "name": "totalMBDRequired",
          "type": "uint256"
        }
      ],
      "name": "Bootstrap",
      "type": "event"
    },
    {
      "anonymous": false,
      "inputs": [
        {
          "indexed": true,
          "internalType": "address",
          "name": "previousOwner",
          "type": "address"
        },
        {
          "indexed": true,
          "internalType": "address",
          "name": "newOwner",
          "type": "address"
        }
      ],
      "name": "OwnershipTransferred",
      "type": "event"
    },
    {
      "anonymous": false,
      "inputs": [
        {
          "indexed": false,
          "internalType": "address",
          "name": "beneficiary",
          "type": "address"
        }
      ],
      "name": "RemoveBeneficiary",
      "type": "event"
    },
    {
      "anonymous": false,
      "inputs": [
        {
          "indexed": false,
          "internalType": "address",
          "name": "beneficiary",
          "type": "address"
        },
        {
          "indexed": false,
          "internalType": "uint256",
          "name": "amount",
          "type": "uint256"
        }
      ],
      "name": "TokensReleased",
      "type": "event"
    },
    {
      "anonymous": false,
      "inputs": [
        {
          "indexed": false,
          "internalType": "address",
          "name": "beneficiary",
          "type": "address"
        },
        {
          "indexed": false,
          "internalType": "uint256",
          "name": "ethAmount",
          "type": "uint256"
        },
        {
          "indexed": false,
          "internalType": "uint256",
          "name": "ethPrice",
          "type": "uint256"
        }
      ],
      "name": "TransferredEth",
      "type": "event"
    },
    {
      "anonymous": false,
      "inputs": [
        {
          "indexed": false,
          "internalType": "address",
          "name": "beneficiary",
          "type": "address"
        },
        {
          "indexed": false,
          "internalType": "uint256",
          "name": "amount",
          "type": "uint256"
        }
      ],
      "name": "UpdateBeneficiary",
      "type": "event"
    },
    {
      "anonymous": false,
      "inputs": [
        {
          "indexed": false,
          "internalType": "uint256",
          "name": "amount",
          "type": "uint256"
        }
      ],
      "name": "WithdrawEth",
      "type": "event"
    },
    {
      "inputs": [
        {
          "internalType": "address",
          "name": "_beneficiary",
          "type": "address"
        },
        {
          "internalType": "uint256",
          "name": "_amount",
          "type": "uint256"
        }
      ],
      "name": "addBeneficiary",
      "outputs": [
        {
          "internalType": "bool",
          "name": "",
          "type": "bool"
        }
      ],
      "stateMutability": "nonpayable",
      "type": "function"
    },
    {
      "inputs": [
        {
          "internalType": "uint256",
          "name": "",
          "type": "uint256"
        }
      ],
      "name": "beneficiaries",
      "outputs": [
        {
          "internalType": "address",
          "name": "",
          "type": "address"
        }
      ],
      "stateMutability": "view",
      "type": "function"
    },
    {
      "inputs": [
        {
          "internalType": "uint256",
          "name": "_startTime",
          "type": "uint256"
        },
        {
          "internalType": "uint256",
          "name": "_duration",
          "type": "uint256"
        },
        {
          "internalType": "address",
          "name": "_mbdAddress",
          "type": "address"
        }
      ],
      "name": "bootstrap",
      "outputs": [
        {
          "internalType": "bool",
          "name": "",
          "type": "bool"
        }
      ],
      "stateMutability": "nonpayable",
      "type": "function"
    },
    {
      "inputs": [],
      "name": "bootstrapped",
      "outputs": [
        {
          "internalType": "bool",
          "name": "",
          "type": "bool"
        }
      ],
      "stateMutability": "view",
      "type": "function"
    },
    {
      "inputs": [],
      "name": "duration",
      "outputs": [
        {
          "internalType": "uint256",
          "name": "",
          "type": "uint256"
        }
      ],
      "stateMutability": "view",
      "type": "function"
    },
    {
      "inputs": [
        {
          "internalType": "address",
          "name": "",
          "type": "address"
        }
      ],
      "name": "ethDeposits",
      "outputs": [
        {
          "internalType": "uint256",
          "name": "",
          "type": "uint256"
        }
      ],
      "stateMutability": "view",
      "type": "function"
    },
    {
      "inputs": [],
      "name": "getLatestPrice",
      "outputs": [
        {
          "internalType": "uint256",
          "name": "",
          "type": "uint256"
        }
      ],
      "stateMutability": "view",
      "type": "function"
    },
    {
      "inputs": [],
      "name": "mbd",
      "outputs": [
        {
          "internalType": "contract IERC20",
          "name": "",
          "type": "address"
        }
      ],
      "stateMutability": "view",
      "type": "function"
    },
    {
      "inputs": [],
      "name": "mbdPrice",
      "outputs": [
        {
          "internalType": "uint256",
          "name": "",
          "type": "uint256"
        }
      ],
      "stateMutability": "view",
      "type": "function"
    },
    {
      "inputs": [],
      "name": "noOfBeneficiaries",
      "outputs": [
        {
          "internalType": "uint256",
          "name": "",
          "type": "uint256"
        }
      ],
      "stateMutability": "view",
      "type": "function"
    },
    {
      "inputs": [],
      "name": "owner",
      "outputs": [
        {
          "internalType": "address",
          "name": "",
          "type": "address"
        }
      ],
      "stateMutability": "view",
      "type": "function"
    },
    {
      "inputs": [
        {
          "internalType": "address",
          "name": "beneficiary",
          "type": "address"
        }
      ],
      "name": "releasableAmount",
      "outputs": [
        {
          "internalType": "uint256",
          "name": "",
          "type": "uint256"
        }
      ],
      "stateMutability": "view",
      "type": "function"
    },
    {
      "inputs": [],
      "name": "release",
      "outputs": [
        {
          "internalType": "uint256",
          "name": "unreleased",
          "type": "uint256"
        }
      ],
      "stateMutability": "nonpayable",
      "type": "function"
    },
    {
      "inputs": [
        {
          "internalType": "address payable",
          "name": "_beneficiary",
          "type": "address"
        }
      ],
      "name": "removeBeneficiary",
      "outputs": [
        {
          "internalType": "bool",
          "name": "",
          "type": "bool"
        }
      ],
      "stateMutability": "nonpayable",
      "type": "function"
    },
    {
      "inputs": [],
      "name": "renounceOwnership",
      "outputs": [],
      "stateMutability": "nonpayable",
      "type": "function"
    },
    {
      "inputs": [],
      "name": "startTime",
      "outputs": [
        {
          "internalType": "uint256",
          "name": "",
          "type": "uint256"
        }
      ],
      "stateMutability": "view",
      "type": "function"
    },
    {
      "inputs": [],
      "name": "transferEth",
      "outputs": [
        {
          "internalType": "uint256",
          "name": "ethAmount",
          "type": "uint256"
        }
      ],
      "stateMutability": "payable",
      "type": "function"
    },
    {
      "inputs": [
        {
          "internalType": "address",
          "name": "newOwner",
          "type": "address"
        }
      ],
      "name": "transferOwnership",
      "outputs": [],
      "stateMutability": "nonpayable",
      "type": "function"
    },
    {
      "inputs": [
        {
          "internalType": "address",
          "name": "_beneficiary",
          "type": "address"
        },
        {
          "internalType": "uint256",
          "name": "_amount",
          "type": "uint256"
        }
      ],
      "name": "updateBeneficiary",
      "outputs": [],
      "stateMutability": "nonpayable",
      "type": "function"
    },
    {
      "inputs": [
        {
          "internalType": "address",
          "name": "beneficiary",
          "type": "address"
        }
      ],
      "name": "vestedAmount",
      "outputs": [
        {
          "internalType": "uint256",
          "name": "",
          "type": "uint256"
        }
      ],
      "stateMutability": "view",
      "type": "function"
    },
    {
      "inputs": [
        {
          "internalType": "address",
          "name": "",
          "type": "address"
        }
      ],
      "name": "vestedBeneficiaries",
      "outputs": [
        {
          "internalType": "uint256",
          "name": "amount",
          "type": "uint256"
        },
        {
          "internalType": "uint256",
          "name": "released",
          "type": "uint256"
        },
        {
          "internalType": "bool",
          "name": "ethTransferred",
          "type": "bool"
        }
      ],
      "stateMutability": "view",
      "type": "function"
    },
    {
      "inputs": [],
      "name": "withdraw",
      "outputs": [],
      "stateMutability": "nonpayable",
      "type": "function"
    }
  ],
  "bytecode": "0x60806040523480156200001157600080fd5b5060405162001c1438038062001c1483398101604081905262000034916200011b565b6200004862000042620000c7565b620000cb565b6001600160a01b0382166200007a5760405162461bcd60e51b8152600401620000719062000155565b60405180910390fd5b600081116200009d5760405162461bcd60e51b815260040162000071906200018c565b600a80546001600160a01b0319166001600160a01b039390931692909217909155600955620001cd565b3390565b600080546001600160a01b038381166001600160a01b0319831681178455604051919092169283917f8be0079c531659141344cd1fd0a4f28419497f9722a3daafe3b4186f6b6457e09190a35050565b600080604083850312156200012e578182fd5b82516001600160a01b038116811462000145578283fd5b6020939093015192949293505050565b6020808252601e908201527f5072696365206665656420616464726573732063616e6e6f7420626520300000604082015260600190565b60208082526021908201527f4d42442070726963652068617320746f20626520686967686572207468616e206040820152600360fc1b606082015260800190565b611a3780620001dd6000396000f3fe6080604052600436106101355760003560e01c806386d1a69f116100ab578063bfb8aea91161006f578063bfb8aea9146102e6578063ca5c705214610315578063efdfe6bc14610335578063efeb5e581461034a578063f2fde38b1461036a578063fcb9b5051461038a57610135565b806386d1a69f1461025a5780638da5cb5b1461026f5780638e15f4731461029157806396074e70146102a6578063b9d1ed4a146102c657610135565b80633ccfd60b116100fd5780633ccfd60b146101dc57806359633a1c146101f357806359852686146102135780635f166d6a1461021b578063715018a61461023057806378e979251461024557610135565b80630fb5a6b41461013a5780631726cbc8146101655780632edef73b1461018557806335142c8c1461019a578063384711cc146101bc575b600080fd5b34801561014657600080fd5b5061014f6103aa565b60405161015c9190611947565b60405180910390f35b34801561017157600080fd5b5061014f61018036600461121a565b6103b0565b34801561019157600080fd5b5061014f6103e7565b3480156101a657600080fd5b506101af6103ed565b60405161015c9190611392565b3480156101c857600080fd5b5061014f6101d736600461121a565b6103f6565b3480156101e857600080fd5b506101f161048c565b005b3480156101ff57600080fd5b506101af61020e36600461121a565b61053f565b61014f610758565b34801561022757600080fd5b5061014f6108b0565b34801561023c57600080fd5b506101f16108b6565b34801561025157600080fd5b5061014f610901565b34801561026657600080fd5b5061014f610907565b34801561027b57600080fd5b50610284610a7e565b60405161015c9190611320565b34801561029d57600080fd5b5061014f610a8d565b3480156102b257600080fd5b506101af6102c1366004611236565b610b21565b3480156102d257600080fd5b5061014f6102e136600461121a565b610cae565b3480156102f257600080fd5b5061030661030136600461121a565b610cc0565b60405161015c93929190611950565b34801561032157600080fd5b506101af610330366004611299565b610ce3565b34801561034157600080fd5b50610284610f20565b34801561035657600080fd5b50610284610365366004611281565b610f2f565b34801561037657600080fd5b506101f161038536600461121a565b610f59565b34801561039657600080fd5b506101f16103a5366004611236565b610fca565b60085481565b6001600160a01b0381166000908152600260205260408120600101546103df906103d9846103f6565b90611175565b90505b919050565b60055481565b60065460ff1681565b6001600160a01b0381166000908152600260205260408120546007544210156104235760009150506103e2565b60085460075461043291611188565b421061043f5790506103e2565b600061044c826002611194565b90506104838161047d6008546104776104706007544261117590919063ffffffff16565b86906111a0565b90611194565b90611188565b925050506103e2565b6104946111ac565b6001600160a01b03166104a5610a7e565b6001600160a01b0316146104d45760405162461bcd60e51b81526004016104cb90611695565b60405180910390fd5b604051303190339082156108fc029083906000818181858888f19350505050158015610504573d6000803e3d6000fd5b507fb2a3fd05447b0260cac7f8db72bfb10790a24739428c6d3abe439e09fcac37f9816040516105349190611947565b60405180910390a150565b60006105496111ac565b6001600160a01b031661055a610a7e565b6001600160a01b0316146105805760405162461bcd60e51b81526004016104cb90611695565b6001600160a01b0382166105a65760405162461bcd60e51b81526004016104cb90611578565b60065460ff16156105c95760405162461bcd60e51b81526004016104cb9061140d565b6001600160a01b0382166000908152600260208190526040909120015460ff1615610630576001600160a01b03821660008181526003602052604080822054905181156108fc0292818181858888f1935050505015801561062e573d6000803e3d6000fd5b505b60005b60045481101561074f57826001600160a01b03166004828154811061066857634e487b7160e01b600052603260045260246000fd5b6000918252602090912001546001600160a01b0316141561073d57600554610691906001611175565b60055560048054829081106106b657634e487b7160e01b600052603260045260246000fd5b6000918252602080832090910180546001600160a01b03191690556001600160a01b0385168252600290819052604080832083815560018101939093559101805460ff19169055517f49ed5a425b7b67ea44959f73b24f6619d66c387d763a7217b9dc7980801b44b09061072b908590611320565b60405180910390a160019150506103e2565b610748816001611968565b9050610633565b50600092915050565b3360009081526002602081905260408220015460ff161561078b5760405162461bcd60e51b81526004016104cb90611531565b336000908152600260205260409020546107b75760405162461bcd60e51b81526004016104cb90611910565b60006107c1610a8d565b600954336000908152600260205260409020549192506107e791839161047791906111a0565b9150813410156108095760405162461bcd60e51b81526004016104cb906114fa565b8134111561084957336108fc61081f3485611175565b6040518115909202916000818181858888f19350505050158015610847573d6000803e3d6000fd5b505b3360008181526003602090815260408083208690556002918290529182902001805460ff19166001179055517fba4b754d936ef03421029246a95f4fa3994d19dfdf96761d1aa82dc2a06bc411916108a49185908590611371565b60405180910390a15090565b60095481565b6108be6111ac565b6001600160a01b03166108cf610a7e565b6001600160a01b0316146108f55760405162461bcd60e51b81526004016104cb90611695565b6108ff60006111b0565b565b60075481565b60065460009060ff1661092c5760405162461bcd60e51b81526004016104cb906116ca565b336000908152600260208190526040909120015460ff1661095f5760405162461bcd60e51b81526004016104cb9061170c565b610968336103b0565b90506000811161098a5760405162461bcd60e51b81526004016104cb906117f4565b336000908152600260205260409020600101546109a79082611188565b33600081815260026020526040908190206001908101939093559154915163a9059cbb60e01b81526001600160a01b039092169163a9059cbb916109ef918590600401611358565b602060405180830381600087803b158015610a0957600080fd5b505af1158015610a1d573d6000803e3d6000fd5b505050506040513d601f19601f82011682018060405250810190610a419190611261565b507fc7798891864187665ac6dd119286e44ec13f014527aeeb2b8eb3fd413df931793382604051610a73929190611358565b60405180910390a190565b6000546001600160a01b031690565b600080600a60009054906101000a90046001600160a01b03166001600160a01b031663feaf968c6040518163ffffffff1660e01b815260040160a06040518083038186803b158015610ade57600080fd5b505afa158015610af2573d6000803e3d6000fd5b505050506040513d601f19601f82011682018060405250810190610b1691906112d1565b509194505050505090565b6000610b2b6111ac565b6001600160a01b0316610b3c610a7e565b6001600160a01b031614610b625760405162461bcd60e51b81526004016104cb90611695565b6001600160a01b038316610b885760405162461bcd60e51b81526004016104cb90611578565b60008211610ba85760405162461bcd60e51b81526004016104cb90611627565b60065460ff1615610bcb5760405162461bcd60e51b81526004016104cb90611797565b6001600160a01b03831660009081526002602052604090205415610c015760405162461bcd60e51b81526004016104cb906114b5565b6004805460018082019092557f8a35acfbc15ff81a39ae7d344fd709f28e8600b4aa8c65c6b64bfe7fe36bd19b0180546001600160a01b0319166001600160a01b0386169081179091556000908152600260205260409020839055600554610c6891611188565b6005556040517f2cff1fbd97349296439d092211657ee417f89f6189b60a2ec990d7384c3bb82c90610c9d9085908590611358565b60405180910390a150600192915050565b60036020526000908152604090205481565b600260208190526000918252604090912080546001820154919092015460ff1683565b6000610ced6111ac565b6001600160a01b0316610cfe610a7e565b6001600160a01b031614610d245760405162461bcd60e51b81526004016104cb90611695565b6001600160a01b038216610d4a5760405162461bcd60e51b81526004016104cb906113e3565b60008311610d6a5760405162461bcd60e51b81526004016104cb906115f0565b428411610d895760405162461bcd60e51b81526004016104cb9061174f565b60078490556008839055600180546001600160a01b0319166001600160a01b0384161790556000805b600454811015610e2457610e106002600060048481548110610de457634e487b7160e01b600052603260045260246000fd5b60009182526020808320909101546001600160a01b031683528201929092526040019020548390611188565b9150610e1d816001611968565b9050610db2565b5060008111610e455760405162461bcd60e51b81526004016104cb9061165e565b6001546040516323b872dd60e01b81526001600160a01b03909116906323b872dd90610e7990339030908690600401611334565b602060405180830381600087803b158015610e9357600080fd5b505af1158015610ea7573d6000803e3d6000fd5b505050506040513d601f19601f82011682018060405250810190610ecb9190611261565b506006805460ff191660011790556040517fb5ca1ca1b7b47549eb8af476f3ef702fc63bcd8b8c01dc163b009bb818f9799790610f09908390611947565b60405180910390a1505060065460ff169392505050565b6001546001600160a01b031681565b60048181548110610f3f57600080fd5b6000918252602090912001546001600160a01b0316905081565b610f616111ac565b6001600160a01b0316610f72610a7e565b6001600160a01b031614610f985760405162461bcd60e51b81526004016104cb90611695565b6001600160a01b038116610fbe5760405162461bcd60e51b81526004016104cb9061139d565b610fc7816111b0565b50565b610fd26111ac565b6001600160a01b0316610fe3610a7e565b6001600160a01b0316146110095760405162461bcd60e51b81526004016104cb90611695565b6001600160a01b03821661102f5760405162461bcd60e51b81526004016104cb90611578565b60065460ff16156110525760405162461bcd60e51b81526004016104cb90611822565b6001600160a01b03821660009081526002602052604090205481141561108a5760405162461bcd60e51b81526004016104cb9061146a565b6001600160a01b0382166000908152600260208190526040909120015460ff16156110c75760405162461bcd60e51b81526004016104cb906118c5565b600081116110e75760405162461bcd60e51b81526004016104cb9061187f565b6001600160a01b03821660009081526002602052604090205461111c5760405162461bcd60e51b81526004016104cb906115b9565b6001600160a01b03821660009081526002602052604090819020829055517f8f58c1877847062a1a2cc850a91389b4fad163cff482c1f465d579aa5b87ef5c906111699084908490611358565b60405180910390a15050565b600061118182846119bf565b9392505050565b60006111818284611968565b60006111818284611980565b600061118182846119a0565b3390565b600080546001600160a01b038381166001600160a01b0319831681178455604051919092169283917f8be0079c531659141344cd1fd0a4f28419497f9722a3daafe3b4186f6b6457e09190a35050565b805169ffffffffffffffffffff811681146103e257600080fd5b60006020828403121561122b578081fd5b8135611181816119ec565b60008060408385031215611248578081fd5b8235611253816119ec565b946020939093013593505050565b600060208284031215611272578081fd5b81518015158114611181578182fd5b600060208284031215611292578081fd5b5035919050565b6000806000606084860312156112ad578081fd5b833592506020840135915060408401356112c6816119ec565b809150509250925092565b600080600080600060a086880312156112e8578081fd5b6112f186611200565b945060208601519350604086015192506060860151915061131460808701611200565b90509295509295909350565b6001600160a01b0391909116815260200190565b6001600160a01b039384168152919092166020820152604081019190915260600190565b6001600160a01b03929092168252602082015260400190565b6001600160a01b039390931683526020830191909152604082015260600190565b901515815260200190565b60208082526026908201527f4f776e61626c653a206e6577206f776e657220697320746865207a65726f206160408201526564647265737360d01b606082015260800190565b60208082526010908201526f04d4244206164647265737320697320360841b604082015260600190565b6020808252603b908201527f43616e6e6f742072656d6f76652062656e656669636961727920617320636f6e60408201527f747261637420686173206265656e20626f6f7473747261707065640000000000606082015260800190565b6020808252602b908201527f4e657720616d6f756e742063616e6e6f74206265207468652073616d6520617360408201526a081bdb1908185b5bdd5b9d60aa1b606082015260800190565b60208082526025908201527f43616e6e6f7420616464207468652073616d652062656e65666963696172792060408201526430b3b0b4b760d91b606082015260800190565b60208082526019908201527f496e636f72726563742045544820616d6f756e742073656e7400000000000000604082015260600190565b60208082526027908201527f42656e65666963696172792068617320616c7265616479207472616e736665726040820152660e4cac8408aa8960cb1b606082015260800190565b60208082526021908201527f42656e65666963696172792063616e6e6f7420626520612030206164647265736040820152607360f81b606082015260800190565b6020808252601e908201527f42656e656669636961727920686173206e6f74206265656e2061646465640000604082015260600190565b6020808252601b908201527f4475726174696f6e207061737365642063616e6e6f7420626520300000000000604082015260600190565b6020808252601e908201527f416d6f756e742073686f756c64206265206c6172676572207468616e20300000604082015260600190565b6020808252601e908201527f546f74616c204d42442072657175697265642063616e6e6f7420626520300000604082015260600190565b6020808252818101527f4f776e61626c653a2063616c6c6572206973206e6f7420746865206f776e6572604082015260600190565b60208082526022908201527f436f6e747261637420686173206e6f74206265656e20626f6f74737472617070604082015261195960f21b606082015260800190565b60208082526023908201527f42656e656669636961727920686173206e6f74207472616e73666572726564206040820152620cae8d60eb1b606082015260800190565b60208082526028908201527f53746172742074696d652063616e6e6f74206265206265666f72652063757272604082015267656e742074696d6560c01b606082015260800190565b60208082526038908201527f43616e6e6f74206164642062656e656669636961727920617320636f6e74726160408201527f637420686173206265656e20626f6f7473747261707065640000000000000000606082015260800190565b602080825260149082015273139bc81c995b19585cd8589b1948185b5bdd5b9d60621b604082015260600190565b6020808252603b908201527f43616e6e6f74207570646174652062656e656669636961727920617320636f6e60408201527f747261637420686173206265656e20626f6f7473747261707065640000000000606082015260800190565b60208082526026908201527f416d6f756e742063616e6e6f7420626520736d616c6c6572206f72206571756160408201526506c20746f20360d41b606082015260800190565b6020808252602b908201527f42656e65666963696172792073686f756c642068617665206e6f74207472616e60408201526a0e6cccae4e4cac8408aa8960ab1b606082015260800190565b6020808252601b908201527f53656e646572206973206e6f7420612062656e65666963696172790000000000604082015260600190565b90815260200190565b92835260208301919091521515604082015260600190565b6000821982111561197b5761197b6119d6565b500190565b60008261199b57634e487b7160e01b81526012600452602481fd5b500490565b60008160001904831182151516156119ba576119ba6119d6565b500290565b6000828210156119d1576119d16119d6565b500390565b634e487b7160e01b600052601160045260246000fd5b6001600160a01b0381168114610fc757600080fdfea2646970667358221220943003816065ce04f99a0036cdff4a2c9689c93c1da4e9fe38f45d7aa417fe8964736f6c63430008000033",
  "linkReferences": {},
  "deployedLinkReferences": {}
}